{
  "contractName": "MyContract",
  "abi": [
    {
      "inputs": [],
      "stateMutability": "nonpayable",
      "type": "constructor"
    },
    {
      "inputs": [],
      "name": "owner",
      "outputs": [
        {
          "internalType": "address",
          "name": "",
          "type": "address"
        }
      ],
      "stateMutability": "view",
      "type": "function"
    },
    {
      "inputs": [],
      "name": "getContract",
      "outputs": [
        {
          "internalType": "address",
          "name": "",
          "type": "address"
        }
      ],
      "stateMutability": "view",
      "type": "function"
    },
    {
      "inputs": [],
      "name": "functionOnlyOwnerCanCall",
      "outputs": [],
      "stateMutability": "nonpayable",
      "type": "function"
    }
  ],
  "bytecode": "0x608060405234801561001057600080fd5b50336000806101000a81548173ffffffffffffffffffffffffffffffffffffffff021916908373ffffffffffffffffffffffffffffffffffffffff16021790555061029e806100606000396000f3fe608060405234801561001057600080fd5b50600436106100415760003560e01c80633871cf0b146100465780638da5cb5b14610050578063958f85bd1461006e575b600080fd5b61004e61008c565b005b61005861011c565b60405161006591906101aa565b60405180910390f35b610076610140565b60405161008391906101aa565b60405180910390f35b60008054906101000a900473ffffffffffffffffffffffffffffffffffffffff1673ffffffffffffffffffffffffffffffffffffffff163373ffffffffffffffffffffffffffffffffffffffff161461011a576040517f08c379a000000000000000000000000000000000000000000000000000000000815260040161011190610248565b60405180910390fd5b565b60008054906101000a900473ffffffffffffffffffffffffffffffffffffffff1681565b60008060009054906101000a900473ffffffffffffffffffffffffffffffffffffffff16905090565b600073ffffffffffffffffffffffffffffffffffffffff82169050919050565b600061019482610169565b9050919050565b6101a481610189565b82525050565b60006020820190506101bf600083018461019b565b92915050565b600082825260208201905092915050565b7f536f6d656e7465206f2070726f70726965746172696f20706f6465206368616d60008201527f617220657373612066756e63616f000000000000000000000000000000000000602082015250565b6000610232602e836101c5565b915061023d826101d6565b604082019050919050565b6000602082019050818103600083015261026181610225565b905091905056fea2646970667358221220bb913264751a37c2ec37ac4507bd8d447645ed75a0923389951c0d7db384d2f564736f6c63430008130033",
  "immutableReferences": {},
  "source": "// SPDX-License-Identifier: MIT\r\n// Tells the Solidity compiler to compile only from v0.8.13 to v0.9.0\r\npragma solidity ^0.8.13;\r\n\r\ncontract MyContract {\r\n    address public owner;\r\n\r\n    constructor() {\r\n        owner = msg.sender;\r\n    }\r\n\r\n    function getContract() public view returns(address) {\r\n        return owner;\r\n    }\r\n\r\n    modifier onlyOwner() {\r\n        require(msg.sender == owner, \"Somente o proprietario pode chamar essa funcao\");\r\n        _;\r\n    }\r\n\r\n    function functionOnlyOwnerCanCall() public onlyOwner {\r\n        \r\n    }\r\n}",
  "sourcePath": "C:\\workspace\\node\\truffe\\contracts\\MyContract.sol",
  "compiler": {
    "name": "solc",
    "version": "0.8.19+commit.7dd6d404.Emscripten.clang"
  },
  "schemaVersion": "3.4.13",
  "updatedAt": "2023-03-13T20:31:23.293Z",
  "devdoc": {
    "kind": "dev",
    "methods": {},
    "version": 1
  },
  "userdoc": {
    "kind": "user",
    "methods": {},
    "version": 1
  }
}